:020000040800F2
:1000000000500020C54400087D0300087F0300085D
:100010008103000883030008850300080000000036
:10002000000000000000000000000000870300083E
:1000300089030008000000008B0300088D030008FE
:100040000D4500080D4500080D4500080D45000848
:100050000D4500080D4500080D4500080D45000838
:100060000D4500080D4500080D4500080D45000828
:100070000D4500080D4500080D4500080D45000818
:100080000D4500080D4500080D4500080D45000808
:10009000950300080D4500080D4500080D450008B2
:1000A0000D4500080D4500080D4500080D450008E8
:1000B0000D4500080D4500080D4500080D450008D8
:1000C0000D4500080D4500080D4500080D450008C8
:1000D0000D4500080D4500080D4500080D450008B8
:1000E0000D4500080D4500080D4500080000000002
:1000F0000000000000000000000000000000000000
:0C01000000000000000000005FF808F1A3
:10010C0010B5054C237833B9044B13B10448AFF345
:10011C0000800123237010BD5C0100200000000052
:10012C005845000808B5034B1BB103490348AFF30E
:10013C00008008BD00000000600100205845000848
:10014C002DE9F04389B00024049405940694079497
:10015C00384B9A6942F010029A619A6902F01002C7
:10016C000092009A9A6942F020029A619A6902F010
:10017C0020020192019A9A6942F004029A619A69EA
:10018C0002F004020292029A9A6942F008029A6101
:10019C009B6903F008030393039BDFF8A0902246AE
:1001AC004FF46041484602F0B6FEDFF894802246D8
:1001BC0040F20731404602F0AEFE1F4E22464FF28F
:1001CC000401304602F0A7FE4FF46043049301256E
:1001DC00059506940227079704A9484602F084FD6A
:1001EC0040F20733049305950694079704A94046FB
:1001FC0002F07AFD48F2F84304930594069504A99D
:10020C00404602F071FD40F2FB7304930594069591
:10021C0004A9304602F068FD4FF2040304930595DF
:10022C000694079704A9304602F05EFD09B0BDE8BC
:10023C00F08300BF00100240000C01400010014090
:10024C000008014072B6FEE708B50748074B03608B
:10025C004FF0FF3343600023836002F021FF00B9AD
:10026C0008BDFFF7EFFF00BFA801002000280040E9
:10027C0000B595B000230D930F931093059306933F
:10028C000793089309930193029303930493012119
:10029C000A914FF480320B920C930E91022311931E
:1002AC0012924FF4801313930AA802F00FF9E8B9D5
:1002BC000F23059302230693002307934FF48062C8
:1002CC0008920993012105A802F03EFB80B9112385
:1002DC0001934FF4407302934FF48003049301A8ED
:1002EC0002F0FEFB30B915B05DF804FBFFF7AAFF76
:1002FC00FFF7A8FFFFF7A6FF08B502F099F8FFF784
:10030C00B7FFFFF71DFFFFF79FFF00F087F80348CB
:10031C0003F0CAFC00F004F8FCE700BFBC010020AD
:10032C0070B501240C2C0ED8E6B20E4D3146284681
:10033C0003F028FE012002F09FF83146284603F016
:10034C003FFE0134EEE7074D284603F053FE064C02
:10035C002946204604F002F808222146034803F0FF
:10036C008FFC70BDBC01002078010020F00900203A
:10037C00FEE7FEE7FEE7FEE7FEE7704770477047D3
:10038C0008B502F067F808BD08B5024800F0C4FED5
:10039C0008BD00BFB40E002082B00E4B9A6942F02B
:1003AC0001029A619A6902F001020092009ADA69DC
:1003BC0042F08052DA61DB6903F080530193019BB8
:1003CC00054A536823F0E06343F00073536002B0B6
:1003DC00704700BF001002400000014002680C4B47
:1003EC009A4200D0704700B583B002F005FE094B6D
:1003FC00DA6942F00062DA61DB6903F000630193B1
:10040C00019B054B01221A6003B05DF804FB00BF91
:10041C0000280040001002403C04424208B5002273
:10042C000B490C4802F09BFE48B90B49094802F0F5
:10043C00ADFE38B9074802F0B0FE30B908BDFFF781
:10044C0001FFF2E7FFF7FEFEF4E7FFF7FBFEF5E72F
:10045C0000000020F00900209800002012230B80DF
:10046C00004870471C00002004230B800048704794
:10047C00300000200023934217D230B40BE0373405
:10048C0001F8134000015C00013400250D550133C7
:10049C00DBB2934207D2040FB0F1204FEFD23034CD
:1004AC0001F81340EEE730BC7047704738B50A4B83
:1004BC00186804331C6804331B68C01800D138BD9D
:1004CC00064D0822A91CFFF7D5FF042205F11201E5
:1004DC002046FFF7CFFFF2E7E8F7FF1F34000020BC
:1004EC0008B51A230B80FFF7E1FF014808BD00BFD8
:1004FC003400002008B50A4628B90549054803F020
:10050C00A2FA034808BD0249024803F09CFAF8E736
:10051C00B40C00207045000810B50A46034C214667
:10052C00034803F090FA204610BD00BFB40C002025
:10053C008845000808B50A4628B90549054803F05E
:10054C0082FA034808BD0249024803F07CFAF8E736
:10055C00B40C00209C45000808B50A4628B905498A
:10056C00054803F070FA034808BD0249024803F03D
:10057C006AFAF8E7B40C0020A8450008022805D850
:10058C00DFE800F0050402000120704702207047EC
:10059C0002680E4B9A4200D0704700B583B003F549
:1005AC00DA33DA6942F40002DA61DB6903F400033E
:1005BC000193019B00221146142002F0C5FC14206B
:1005CC0002F0F6FC03B05DF804FB00BF005C0040D9
:1005DC0008B500F52C71D0F8E80202F0F6FD08BD64
:1005EC0008B501EB810300EBC303D3F87C21D0F8F1
:1005FC00E80202F017FE08BD08B501EB810300EB21
:10060C00C303DA6BD0F8E80202F052FE08BD08B55D
:10061C00D0F8E80202F0F3FE08BD10B5044683687A
:10062C00022B09D10121D4F8E80202F0D1FED4F852
:10063C00E80202F0A5FE10BDFFF704FEF2E7000091
:10064C0010B50446D0F8E80202F0C5FEA36923B148
:10065C00024A136943F00603136110BD00ED00E07C
:10066C0008B5D0F8E80202F0BFFE08BD10B504468C
:10067C001648C0F8E842C4F8C002154B03600823C2
:10068C0043600223836000238361C361036200F033
:10069C000CF9B8B9182300221146D4F8C00200F0A6
:1006AC004EFF582300228021D4F8C00200F047FFEF
:1006BC004FF4807300228121D4F8C00200F03FFF78
:1006CC00002010BDFFF7BEFDE4E700BFB40E002014
:1006DC00005C004008B5D0F8C00200F06CF9FFF7E0
:1006EC004DFF08BD10B514461A462346D0F8C0027B
:1006FC0000F0FBFDFFF742FF10BD08B5D0F8C002BB
:10070C0000F02FFEFFF73AFF08BD08B5D0F8C00285
:10071C0000F09EFEFFF732FF08BD08B5D0F8C0020E
:10072C0000F0D2FEFFF72AFF08BDD0F8C03211F05E
:10073C00800F08D101F07F0101EB810103EBC101B6
:10074C0091F86A01704701F07F01013101EB8101E1
:10075C0003EBC1018878704708B5D0F8C00200F0EF
:10076C00C7FCFFF70BFF08BD08B5D0F8C00200F0BE
:10077C004CFEFFF703FF08BD08B5D0F8C00200F02F
:10078C0022FEFFF7FBFE08BD0048704780010020E9
:10079C007047704770B512F4804F43D00468B4F8BA
:1007AC0050309BB20D7803EBC503023304EB4303CB
:1007BC00B3F80044C4F309048B69A34228D31B1B70
:1007CC008B618B697BB9066836F825309BB223F4B4
:1007DC00804323F0700383F4005343F4004343F04D
:1007EC00800326F8253012F0400F0ED002680D78E9
:1007FC0032F825309BB223F4E04323F0700343F42A
:10080C00004343F0C00322F8253024B9204670BDC4
:10081C0000238B61D5E723460A894969006801F0FA
:10082C00CAFDF3E70468B4F850309BB20D7803EBC3
:10083C00C503063304EB4303B3F80044C4F30904C3
:10084C008B69A3422ED31B1B8B618B697BB906680A
:10085C0036F825309BB223F4804323F0700383F4E5
:10086C00005343F4004343F0800326F8253012F084
:10087C00400F0ED102680D7832F825309BB223F46C
:10088C00E04323F0700343F4004343F0C00322F829
:10089C002530002CBAD023464A894969006801F0FA
:1008AC008AFDB3E700238B61CFE7F0B587B0002852
:1008BC007FD0044690F8A932DBB1032384F8A93227
:1008CC00206800F068FE254655F8107B6E460FCD6B
:1008DC000FC62B683360231D0ECB384600F04BFE41
:1008EC00054658B1022384F8A9320125284607B0E1
:1008FC00F0BD80F8A832FFF74BFEDEE70021206840
:10090C0000F053FE2B4619E05A1C02EB820104EB5B
:10091C00C1010120487002EB820104F8313003EB75
:10092C00830104EBC101CB8602EB820604EBC60605
:10093C000020F0708863C8630864D3B261688B428E
:10094C00E2D316E005EB850304EBC303002283F826
:10095C00692183F8685183F86B21C3F87821C3F8B7
:10096C007C2105EB850304EBC303C3F8802101351F
:10097C00EDB2A942E6D8254655F8107B6E460FCD50
:10098C000FC62B683360231D0ECB384600F00FFECC
:10099C00054620B1022384F8A9320125A6E70023DD
:1009AC0084F82430012384F8A932206801F019F965
:1009BC009CE701259AE738B590F8A832012B11D0A5
:1009CC000446012580F8A852006800F0DBFD29469A
:1009DC002046FFF7DEFE206801F001F9002084F8C4
:1009EC00A80238BD0220FCE770B505460C46164639
:1009FC0012F0400F00F0BA800268B2F850309BB28F
:100A0C00097803EBC103023302EB4303B3F8002470
:100A1C00C2F30902A36993422BD99B1AA361A36960
:100A2C0053B316F4804F0DD0286830F821309BB2A8
:100A3C0023F4E04323F0700343F4404343F080037A
:100A4C0020F8213094F82430012B2BD02A682178FF
:100A5C0032F821309BB223F4E04323F0400383F0BF
:100A6C00300343F4004343F0800322F8213000208C
:100A7C0070BD0023A361D2E72846FFF7BDFD16F435
:100A8C00804FE3D02A68217832F821309BB223F4CE
:100A9C00E04323F0700343F4404343F0800322F817
:100AAC002130D3E7636913446361E3691344E36161
:100ABC00216A236999421FD3C91A21626278002ADC
:100ACC003FD12A68B2F8501089B20A44217802EB5F
:100ADC000112EBB9B2F8041489B221F4F84189B2CD
:100AEC00A2F80414B2F804146FEA41416FEA5141C0
:100AFC0089B2A2F8041426E021B9002384F824302A
:100B0C001346DBE7002384F8243023620B46D5E739
:100B1C003E2B09D8590813F0010F00D0013189027E
:100B2C0089B2A2F804140EE0590913F01F0F00D17A
:100B3C0001396FEAC1616FEA514189B2A2F804141C
:100B4C0001E0012A06D09BB222896169286801F074
:100B5C0050F87BE72A68B2F8501089B20A44217821
:100B6C0002EB011299B2A2F80414ECE70268B2F895
:100B7C0050309BB2097803EBC103063302EB4303FD
:100B8C00B3F80024C2F30902A369934244D39B1A1D
:100B9C00A361A369002B42D016F4804F0DD12868B5
:100BAC0030F821309BB223F4E04323F0700343F47C
:100BBC00404343F0800320F8213094F82430012B7B
:100BCC007FF444AF636913446361E3691344E361E5
:100BDC00216A2369994239D3C91A21622A6861783A
:100BEC00002958D1B2F8501089B20A44217802EB8E
:100BFC000112BBBBB2F80C1489B221F4F84189B2D2
:100C0C00A2F80C14B2F80C146FEA41416FEA51418E
:100C1C0089B2A2F80C1440E00023A361B9E728467E
:100C2C00FFF7EAFC16F4804F7FF410AF2A682178A6
:100C3C0032F821309BB223F4E04323F0700343F4E9
:100C4C00404343F0800322F82130FFE621B9002312
:100C5C0084F824301346C1E70023236284F824303F
:100C6C000B46BBE73E2B09D8590813F0010F00D0F7
:100C7C000131890289B2A2F80C140EE0590913F063
:100C8C001F0F00D101396FEAC1616FEA514189B27E
:100C9C00A2F80C1401E0012906D09BB262896169AB
:100CAC00286800F0A6FFD1E6B2F8501089B20A44C9
:100CBC00217802EB011299B2A2F80C14EDE72DE9A0
:100CCC00F04105462868B0F8443013F4004F00F0AA
:100CDC000C82B0F84440A3B214F00F0440F0D4805E
:100CEC0013F0100F5DD003889AB213F4006F40F02C
:100CFC008F8012F4004FE5D0038823F070031B059E
:100D0C001B0D43F0800303802868B0F850309BB271
:100D1C0095F8682103EBC203063300EB4303B3F8E9
:100D2C000034C3F30903C5F884318BB1D5F87C11B9
:100D3C0071B1B5F86E2101F03EFBD5F88421D5F8E0
:100D4C007C311344C5F87C3100212846FFF748FC60
:100D5C002A68B2F850309BB21344D5F87821002A97
:100D6C0079D1B3F80C2492B222F4F84292B2A3F8DF
:100D7C000C24B3F80C246FEA42426FEA524292B24E
:100D8C00A3F80C242A6813889BB223F4804323F025
:100D9C00700383F4405343F4004343F08003138007
:100DAC0090E703889BB223F4E14323F070036FEACE
:100DBC0043436FEA53439BB203802A68B2F8503026
:100DCC009BB295F8281003EBC103023302EB4303EB
:100DDC00B3F80034C3F309036B64EA6B1344EB639D
:100DEC0000212846FFF708FC95F82430002B3FF42F
:100DFC0069AF2B6C002B7FF465AF95F824302A6813
:100E0C0043F08003A2F84C30002385F8243059E7D6
:100E1C00B0F850309BB295F8682103EBC20306334F
:100E2C0000EB4303B3F80034C3F30903C5F8843172
:100E3C00B5F86E2105F52C7101F0BDFA2A681388FE
:100E4C0023F070031B051B0D43F080031380284611
:100E5C00FFF7BEFB36E73E2A09D8510812F0010F06
:100E6C0000D00131890289B2A3F80C148AE7510928
:100E7C0012F01F0F00D101396FEAC1626FEA5242C2
:100E8C0092B2A3F80C247DE730F824309EB213F410
:100E9C00004F4CD116F0800F3FF414AF621C02EBE4
:100EAC00820105EBC101286830F824309BB223F491
:100EBC00E14323F070036FEA43436FEA53439BB261
:100ECC0020F82430CB78022B00F0F2802868B0F8A0
:100EDC0050309BB2621C02EB820215F8322003EBFD
:100EEC00C203023300EB4303B3F80034C3F309032A
:100EFC0004EB840205EBC202126C9A4240F2E180D0
:100F0C0004EB840605EBC606D21A326404EB8402A9
:100F1C0005EBC202126C002A40F0DA80013404EBBB
:100F2C00840415F834102846FFF766FBCAE630F83F
:100F3C00243023F070031B051B0D43F0800320F8B5
:100F4C00243004EB8401C90001F5B47105EB0108F0
:100F5C0004EB840305EBC30393F87431002B42D1EB
:100F6C002868B0F850309BB204EB840205EBC20247
:100F7C0092F8682103EBC203063300EB4303B3F88A
:100F8C000074C7F3090717BB04EB840305EBC30319
:100F9C00D3F884213A44C3F88421D3F87C213A4411
:100FAC00C3F87C21D3F880313BB104EB840305EB0F
:100FBC00C303D3F878319F4275D204EB840305EB5D
:100FCC00C30393F868112846FFF70AFB62E704EBAA
:100FDC00840105EBC1013B46B1F86E21D1F87C11BF
:100FEC0001F0E9F9D0E704EB840305EBC30393F8B4
:100FFC006B31022B35D0296804EB840205EBC2025D
:10100C0092F8680131F820309BB223F4E04323F0CE
:10101C00700343F4004343F0C00321F820302868E8
:10102C0092F8682130F8223013F4804F20D0B0F8B9
:10103C0050309BB203EBC203023300EB4303B3F813
:10104C000074C7F30907002F9ED004EB840105EB55
:10105C00C1013B46B1F87021D1F87C1101F0ABF91C
:10106C0092E7324641462846FFF794FB07468BE74A
:10107C00B0F850309BB203EBC203063300EB4303D2
:10108C00B3F80074C7F30907002F3FF47DAF04EBEE
:10109C00840105EBC1013B46B1F87221D1F87C11FA
:1010AC0001F089F970E74146286800F0B5FDF1E6DA
:1010BC0016F4807F3FF40AAF32462846FFF794FCC3
:1010CC0000E604EB840205EBC202002616641DE761
:1010DC0004EB840205EBC202D66B1E44D663546C3F
:1010EC002344536400F098FDECE50020BDE8F0814A
:1010FC0090F8A832012B0DD010B50446012380F8CE
:10110C00A83280F82410006800F063FD002084F8F9
:10111C00A80210BD0220704710B584B004460068C8
:10112C0000F061FD10F4004F32D1206800F05BFD3F
:10113C0010F4806F30D1206800F055FD10F4804F12
:10114C0008D02268B2F844309BB223F480439BB29F
:10115C00A2F84430206800F046FD10F4005F08D07F
:10116C002268B2F844309BB223F400539BB2A2F82D
:10117C004430206800F037FD10F4805F1DD12068EA
:10118C0000F031FD10F4006F00F08B8000233DE087
:10119C002046FFF794FDC8E72268B2F844309BB2B2
:1011AC0023F480639BB2A2F844302046FFF735FA53
:1011BC0000212046FFF79CFFBDE72268B2F84030C3
:1011CC009BB223F004039BB2A2F840302268B2F821
:1011DC0040309BB223F008039BB2A2F8403020466B
:1011EC00FFF73EFA2268B2F844309BB223F48053E6
:1011FC009BB2A2F84430C2E7226832F8231004AA4A
:10120C0002EB430222F8101C0133DBB2072BF3D99B
:10121C002268B2F840309BB243F00103A2F8403090
:10122C002268B2F840309BB223F001039BB2A2F8C3
:10123C0040302368B3F8442012F4806FF9D0B3F82F
:10124C00442092B222F4806292B2A3F8442000238C
:10125C0009E0226804A901EB430131F8101C22F8C3
:10126C0023100133DBB2072BF3D92268B2F84030DC
:10127C009BB243F00803A2F840302268B2F8443025
:10128C009BB223F400639BB2A2F844302268B2F8FC
:10129C0040309BB243F00403A2F840302046FFF7E5
:1012AC00CFF9206800F09FFC10F4007F10D120686B
:1012BC0000F099FC10F4807F08D02268B2F844301A
:1012CC009BB223F480739BB2A2F8443004B010BDDF
:1012DC002268B2F844309BB223F400739BB2A2F89C
:1012EC0044302046FFF793F9E1E770B505460C460C
:1012FC0011F0800F26D101F0070000EB8001C9002E
:10130C0001F5B476A91900EB800005EBC0000026AE
:10131C0080F8696104F007040C700A61CB704A789C
:10132C0002B1CC81022B17D095F8A832012B16D024
:10133C00012385F8A832286800F04CF9002085F8C4
:10134C00A80270BD01F00700013000EB800105EB35
:10135C00C10101264E70DDE700230B71E4E702208A
:10136C00EFE710B504460B4611F0800F1FD101F0CA
:10137C00070202EB8201C90001F5B471014402EBD2
:10138C00820200EBC202002082F8690103F007031D
:10139C000B7094F8A832012B13D0012384F8A832D7
:1013AC00206800F0B6FA002084F8A80210BD01F005
:1013BC000702013202EB820100EBC10101204870EF
:1013CC00E4E70220F2E738B501F0070404EB8401EE
:1013DC00C90001F5B471014404EB840500EBC505AB
:1013EC00C5F87C21C5F880310023C5F8843185F817
:1013FC00693185F8684124B9006800F00DFC0020C3
:10140C0038BD006800F008FCF9E770B501F007057D
:10141C006C1C04EB840100EBC10105EB850600EBB1
:10142C00C606F2633364012286F84C20B3640023B1
:10143C0073644A7004EB840400F8345025B90068D6
:10144C0000F0EAFB002070BD006800F0E5FBF9E756
:10145C0038B501F007054268954231D804460B4671
:10146C0011F0800F1ED101EB8101C90001F5B4719F
:10147C00014403EB830300EBC303002283F86921CF
:10148C0001238B700D7094F8A832012B1AD0012314
:10149C0084F8A832206800F026FB5DB1002084F8A7
:1014AC00A80238BD6B1C03EB830100EBC1010122C8
:1014BC004A70E5E704F52C71206800F098FBEDE725
:1014CC000120EEE70220ECE70B4601F00F01426829
:1014DC00914230D810B5044613F0800F21D103F09F
:1014EC00070202EB8201C90001F5B471014402EB61
:1014FC00820200EBC202002082F8690100228A708D
:10150C0003F007030B7094F8A832012B15D00123BC
:10151C0084F8A832206800F00BFB002084F8A802A5
:10152C0010BD03F00702013202EB820100EBC10196
:10153C0001204870E2E7012070470220F0E711F02B
:10154C00800F0BD001F00701013101EB810100EBA1
:10155C00C10152B90A73CB800020704701EB8101A5
:10156C00C90001F5B4710144F3E701220A730B8140
:10157C001B0C4B81F0E784B001A880E80E00002022
:10158C0004B0704703460020A3F844004FF43F42D8
:10159C00A3F840207047B0F8403023F47C535B0430
:1015AC005B0CA0F84030002070470020704784B0DE
:1015BC0010B4044602A880E80E000123A4F84030C1
:1015CC000020A4F84000A4F84400A4F8500010BC7B
:1015DC0004B0704730B403460C7830F8242092B233
:1015EC0022F4EC4222F0700292B2C87803285AD846
:1015FC00DFE800F04E550251002048F280052A43E6
:10160C0023F824200C7833F8242092B222F4E04200
:10161C0022F0700222432A4323F824200A7B002A5A
:10162C0040F0B6804A78002A4ED0B3F8502092B2DF
:10163C001A440C7802EB0412CC8864086400A2F8FB
:10164C0000440C7833F8242012F0400F0CD033F8FF
:10165C00242092B222F4E04222F0700242F40042C2
:10166C0042F0C00223F82420CA78012A1DD0097840
:10167C0033F8212092B222F4E04222F0400282F0B0
:10168C00200242F4004242F0800223F8212064E060
:10169C0042F40072B1E742F4C0620020ADE742F4BC
:1016AC0080620020A9E70120A7E7097833F8212000
:1016BC0092B222F4E04222F0400242F4004242F0A4
:1016CC00800223F8212048E0B3F8502092B21A444B
:1016DC000C7802EB0412CC8864086400A2F808446D
:1016EC00B3F8502092B21A440C7802EB04120C6935
:1016FC00ACBBB2F80C44A4B224F4F844A4B2A2F8E3
:10170C000C44B2F80C446FEA44446FEA5444A4B25B
:10171C00A2F80C440C7833F8242012F4804F0CD02F
:10172C0033F8242092B222F4E04222F0700242F408
:10173C00404242F0800223F82420097833F821201B
:10174C0092B222F4804222F0700282F4405242F4AF
:10175C00004242F0800223F8212030BC70473E2C1E
:10176C0009D8650814F0010F00D00135AD02ADB2F7
:10177C00A2F80C54CEE7650914F01F0F00D1013DFF
:10178C006FEAC5646FEA5444A4B2A2F80C44C1E7F2
:10179C000C7833F8242092B222F4E04222F070024A
:1017AC0042F4014242F0800223F82420B3F8502086
:1017BC0092B21A440C7802EB04120C89640864008F
:1017CC00A2F80044B3F8502092B21A440C7802EB01
:1017DC0004124C8964086400A2F808444A78002A70
:1017EC0040D10C7833F8242012F4804F0CD033F80D
:1017FC00242092B222F4E04222F0700242F44042E1
:10180C0042F0800223F824200C7833F8242012F0C4
:10181C00400F0CD033F8242092B222F4E04222F094
:10182C00700242F4004242F0C00223F824200D78EA
:10183C0033F8252092B222F4804222F0700282F416
:10184C00405248F28004224323F82520097833F8CB
:10185C00212092B222F4E04222F04002224323F8EB
:10186C0021207AE70C7833F8242012F4804F0CD026
:10187C0033F8242092B222F4E04222F0700242F4B7
:10188C00404242F0800223F824200C7833F82420C4
:10189C0012F0400F0CD033F8242092B222F4E04224
:1018AC0022F0700242F4004242F0C00223F82420DD
:1018BC00CA78012A1ED00C7833F8242092B222F474
:1018CC00E04222F0400282F0200242F4004242F058
:1018DC00800223F82420097833F8212092B222F4D4
:1018EC00804222F0700242F4004242F0800223F85F
:1018FC00212032E70C7833F8242092B222F4E04213
:10190C0022F0400242F4004242F0800223F82420EC
:10191C00E1E70B7B002B46D14B7813B30A7830F8F8
:10192C00223013F0400F0CD030F822309BB223F44D
:10193C00E04323F0700343F4004343F0C00320F86A
:10194C0022300A7830F822309BB223F4E04323F0A3
:10195C00400343F4004343F0800320F8223000207E
:10196C0070470A7830F8223013F4804F0CD030F8DE
:10197C0022309BB223F4E04323F0700343F4404342
:10198C0043F0800320F822300A7830F822309BB2E2
:10199C0023F4804323F0700343F4004343F08003AB
:1019AC0020F82230DBE710B44B78002B4ED10A78AC
:1019BC0030F8223013F4804F0CD030F822309BB228
:1019CC0023F4E04323F0700343F4404343F08003DB
:1019DC0020F822300A7830F8223013F0400F0CD067
:1019EC0030F822309BB223F4E04323F0700343F42D
:1019FC00004343F0C00320F822300A7830F822303C
:101A0C009BB223F4E04323F0700343F4004343F010
:101A1C00C00320F822300B7830F8232092B222F445
:101A2C00804222F0700248F28004224320F82320E6
:101A3C000A7830F822309BB223F4E04323F04003C1
:101A4C00234320F82230002010BC70470A7830F86D
:101A5C00223013F4804F0CD030F822309BB223F498
:101A6C00E04323F0700343F4404343F0800320F839
:101A7C0022300A7830F8223013F0400F0CD030F8B6
:101A8C0022309BB223F4E04323F0700343F4004371
:101A9C0043F0C00320F822300A7830F822309BB291
:101AAC0023F4E04323F0700343F4404343F08003FA
:101ABC0020F822300B7830F8232092B222F4E04246
:101ACC0022F0400248F28004224320F823200A78B6
:101ADC0030F822309BB223F4804323F0700323436D
:101AEC0020F82230AFE74B788BB10A7830F82230EF
:101AFC009BB223F4E04323F0400383F0100343F440
:101B0C00004343F0800320F82230002070470A780D
:101B1C0030F822309BB223F4804323F0700383F41B
:101B2C00805343F4004343F0800320F82230ECE769
:101B3C000B7B002B4BD14B7833B30A7830F8223027
:101B4C0013F0400F0CD030F822309BB223F4E0435A
:101B5C0023F0700343F4004343F0C00320F8223019
:101B6C00CB78012B33D00A7830F822309BB223F497
:101B7C00E04323F0400383F0200343F4004343F09D
:101B8C00800320F8223022E00A7830F8223013F457
:101B9C00804F0CD030F822309BB223F4E04323F07A
:101BAC00700343F4404343F0800320F822300A785A
:101BBC0030F822309BB223F4804323F0700383F47B
:101BCC00405343F4004343F0800320F822300020BC
:101BDC00704711B98023A0F84C30002070470020CA
:101BEC00704700207047B0F8440080B27047002066
:101BFC00704710B45C1C640800EB420202F5806272
:101C0C0044B10B78487843EA002322F8043B0231B4
:101C1C00013CF5E710BC704770B505460C464A7898
:101C2C00012A37D00B7B002B40F0A0828B690A690C
:101C3C00934240F27E829B1A8B61B5F850309BB276
:101C4C002B44217803EB0113002A40F07682B3F881
:101C5C000C2492B222F4F84292B2A3F80C24B3F8FA
:101C6C000C246FEA42426FEA524292B2A3F80C245F
:101C7C00227835F822309BB223F4804323F0700392
:101C8C0083F4405343F4004343F0800325F822309F
:101C9C00002070BD8E6909698E4200D90E46237BE7
:101CAC003BB3E378022B46D0217835F8213013F082
:101CBC00400F00F0EE81002A40F0CA81B5F8503098
:101CCC009BB22B4403EB0113002E40F0A881B3F818
:101CDC000C2492B222F4F84292B2A3F80C24B3F87A
:101CEC000C246FEA42426FEA524292B2A3F80C24DF
:101CFC00B7E1B6B23346E28861692846FFF779FF4F
:101D0C00B5F850309BB22B44227803EB0213A3F8A6
:101D1C000464227835F822309BB223F4E04323F09C
:101D2C00400383F0300343F4004343F0800325F871
:101D3C0022300020ADE7236A994280F0528122784C
:101D4C0035F822309BB223F4E04323F0700343F4C4
:101D5C00014343F0800325F82230236A9B1B236246
:101D6C00237835F8232012F0400F00F09D80627824
:101D7C008ABBB5F8502092B22A4402EB03138EB9F9
:101D8C00B3F80C2492B222F4F84292B2A3F80C24C9
:101D9C00B3F80C246FEA42426FEA524292B2A3F8B3
:101DAC000C241AE03E2E09D8720816F0010F00D050
:101DBC000132920292B2A3F80C240EE0720916F0D2
:101DCC001F0F00D1013A6FEAC2626FEA524292B21F
:101DDC00A3F80C2401E0012A2BD0B3B2628961690B
:101DEC002846FFF706FF636933446361236A22695F
:101DFC00934228D99B1B23626378002B40D1B5F802
:101E0C0050309BB22B44227803EB0213FEB9B3F88B
:101E1C00042492B222F4F84292B2A3F80424B3F848
:101E2C0004246FEA42426FEA524292B2A3F80424AD
:101E3C0028E0B5F8502092B22A4402EB0313B2B258
:101E4C00A3F80C24C9E7002222621E46D4E73E2EDA
:101E5C0009D8720816F0010F00D00132920292B22A
:101E6C00A3F804240EE0720916F01F0F00D1013AFA
:101E7C006FEAC2626FEA524292B2A3F8042401E004
:101E8C00012B06D0B3B2228961692846FFF7B1FE57
:101E9C003FE7B5F850309BB22B44227803EB02138A
:101EAC00B2B2A3F80424EDE762788ABBB5F85020EF
:101EBC0092B22A4402EB03138EB9B3F8042492B203
:101ECC0022F4F84292B2A3F80424B3F804246FEA83
:101EDC0042426FEA524292B2A3F804241AE03E2E18
:101EEC0009D8720816F0010F00D00132920292B29A
:101EFC00A3F804240EE0720916F01F0F00D1013A6A
:101F0C006FEAC2626FEA524292B2A3F8042401E073
:101F1C00012A2BD0B3B2228961692846FFF769FEEA
:101F2C00636933446361236A2269934228D99B1BFA
:101F3C0023626378002B40D1B5F850309BB22B4410
:101F4C00227803EB0213FEB9B3F80C2492B222F4FC
:101F5C00F84292B2A3F80C24B3F80C246FEA424274
:101F6C006FEA524292B2A3F80C2428E0B5F8502044
:101F7C0092B22A4402EB0313B2B2A3F80424C9E7C9
:101F8C00002222621E46D4E73E2E09D8720816F0B3
:101F9C00010F00D00132920292B2A3F80C240EE091
:101FAC00720916F01F0F00D1013A6FEAC2626FEA94
:101FBC00524292B2A3F80C2401E0012B06D0B3B22A
:101FCC00628961692846FFF714FEA2E6B5F8503025
:101FDC009BB22B44227803EB0213B2B2A3F80C246D
:101FEC00EDE7217835F8212092B222F4E24222F07A
:101FFC00700242F4004242F0800225F82120B5F82C
:10200C00502092B22A44217802EB01129BB2A2F822
:10201C000434228961692846FFF7EBFD79E63E2EF0
:10202C0009D8720816F0010F00D00132920292B258
:10203C00A3F80C2415E0720916F01F0F00D1013A19
:10204C006FEAC2626FEA524292B2A3F80C2408E023
:10205C00B5F850309BB22B4403EB0113B2B2A3F88A
:10206C000C246289B3B261692846FFF7C2FD63781C
:10207C00002B4CD1227835F822309BB223F4E0436C
:10208C0023F0700343F4004343F0C00325F82230DF
:10209C003FE68ABBB5F850309BB22B4403EB0113DF
:1020AC008EB9B3F8042492B222F4F84292B2A3F897
:1020BC000424B3F804246FEA42426FEA524292B20B
:1020CC00A3F8042421E03E2E09D8720816F0010F63
:1020DC0000D00132920292B2A3F8042415E07209E6
:1020EC0016F01F0F00D1013A6FEAC2626FEA52423A
:1020FC0092B2A3F8042408E0B5F850309BB22B44FC
:10210C0003EB0113B2B2A3F804242289AAE7012B32
:10211C007FF4FFAD227835F822309BB223F4E043F4
:10212C0023F0700343F4404343F0800325F822303E
:10213C00EFE500228A611A467FE53E2A09D851084C
:10214C0012F0010F00D00131890289B2A3F80C14EE
:10215C008EE5510912F01F0F00D101396FEAC161F0
:10216C006FEA514189B2A3F80C1481E5CB78022BAC
:10217C0045D0012B40F01D8189692369994240F2B9
:10218C00D480C91AA161D2B9B5F8502092B22A44B0
:10219C00217802EB0112002B40F0CB80B2F8041432
:1021AC0089B221F4F84189B2A2F80414B2F80414EB
:1021BC006FEA41416FEA514189B2A2F80414627886
:1021CC00002A40F0E880B5F8502092B22A442178D9
:1021DC0002EB0112002B40F0C580B2F80C349BB21C
:1021EC0023F4F8439BB2A2F80C34B2F80C346FEA27
:1021FC0043436FEA53439BB2A2F80C3438E5CAB997
:10220C00B0F850309BB203440A7803EB02130A690E
:10221C0072BBB3F8042492B222F4F84292B2A3F83F
:10222C000424B3F804246FEA42426FEA524292B299
:10223C00A3F804246378002B4CD1B5F850309BB232
:10224C002B44227803EB0213226952BBB3F80C2403
:10225C0092B222F4F84292B2A3F80C24B3F80C24F4
:10226C006FEA42426FEA524292B2A3F80C2433E076
:10227C003E2A09D8510812F0010F00D001318A0210
:10228C0092B2A3F80424D5E7510912F01F0F00D124
:10229C0001396FEAC1626FEA524292B2A3F8042488
:1022AC00C8E73E2A09D8510812F0010F00D00131BD
:1022BC008A0292B2A3F80C240EE0510912F01F0FFF
:1022CC0000D101396FEAC1626FEA524292B2A3F8AF
:1022DC000C2401E0012B1DD0E369002B3FF4C8ACAA
:1022EC00227835F8221044F2400303EA01008B43B4
:1022FC0002D000287FF4BCAC35F822309BB223F41A
:10230C00E04323F0700343F4004343F0C00325F88B
:10231C002230ADE4B5F850309BB22B44227803EB5D
:10232C000213228AA3F80C24D6E70023A3610B46E0
:10233C0029E73E2B09D8590813F0010F00D00131C1
:10234C00890289B2A2F8041439E7590913F01F0F56
:10235C0000D101396FEAC1616FEA514189B2A2F82B
:10236C0004142CE73E2B09D8590813F0010F00D0A8
:10237C0001318B029BB2A2F80C3479E4590913F0A9
:10238C001F0F00D101396FEAC1636FEA53439BB24F
:10239C00A2F80C346CE4012A7FF46AACB5F8502036
:1023AC0092B22A44217802EB01129BB2A2F80C34AF
:1023BC005EE401206DE410B45C0800EB420000F513
:1023CC00806044B130F8042B0A70C2F307224A70C3
:1023DC000231013CF5E713F0010F01D003880B70BB
:1023EC0010BC704710B504460E4B18784FF47A7336
:1023FC00B3FBF0F30C4A1068B0FBF3F000F0E6FD11
:10240C0068B90F2C01D901200AE0002221464FF0B7
:10241C00FF3000F099FD054B1C60002000E001200E
:10242C0010BD00BF4E0000205400002050000020C2
:10243C0008B5074A136843F010031360032000F03B
:10244C0071FD0F20FFF7CEFFFDF7A6FF002008BDA2
:10245C0000200240034A1168034B1B780B441360A5
:10246C00704700BFA01100204E000020014B1868DF
:10247C00704700BFA011002038B50446FFF7F6FFE7
:10248C000546B4F1FF3F02D0044B1B781C44FFF708
:10249C00EDFF401BA042FAD338BD00BF4E00002018
:1024AC0082B0084B1B68084AA2FB03235B0A00FBA3
:1024BC0003F3019300BF019B5A1E0192002BF9D12B
:1024CC0002B0704754000020D34D6210002800F079
:1024DC00F18170B582B00446036813F0010F2CD063
:1024EC00AA4B5B6803F00C03042B1DD0A74B5B6855
:1024FC0003F00C03082B12D06368B3F5803F41D076
:10250C00002B55D103F1804303F504331A6822F4F0
:10251C0080321A601A6822F480221A6037E09B4BD2
:10252C005B6813F4803FE7D0984B1B6813F4003FB3
:10253C0003D06368002B00F0BF81236813F0020FF7
:10254C0075D0924B5B6813F00C0F5FD08F4B5B68B0
:10255C0003F00C03082B54D02369002B00F0898066
:10256C008B4B01221A60FFF781FF0546874B1B68D6
:10257C0013F0020F74D1FFF779FF401B0228F5D935
:10258C0003209EE1814A136843F48033136063682F
:10259C0043B3FFF76BFF05467C4B1B6813F4003FFE
:1025AC00CBD1FFF763FF401B6428F5D9032088E1EA
:1025BC00B3F5A02F09D0754B1A6822F480321A603B
:1025CC001A6822F480221A60E1E703F18043A3F534
:1025DC003C331A6842F480221A601A6842F4803242
:1025EC001A60D4E7FFF742FF0546684B1B6813F4EB
:1025FC00003FA2D0FFF73AFF401B6428F5D9032017
:10260C005FE1624B5B6813F4803FA5D15F4B1B68A5
:10261C0013F0020F03D02369012B40F04F815B4A6A
:10262C00136823F0F803616943EAC103136023685C
:10263C0013F0080F32D0A369002B45D0554B012263
:10264C001A60FFF713FF0546504B5B6A13F0020F3D
:10265C0021D1FFF70BFF401B0228F5D9032030E1F5
:10266C004A4A136823F0F803616943EAC103136013
:10267C00DDE7474B00221A60FFF7F8FE0546434B97
:10268C001B6813F0020FD2D0FFF7F0FE401B02289C
:10269C00F5D9032015E10120FFF702FF236813F0A1
:1026AC00040F00F09780394BDB6913F0805F1DD16C
:1026BC00364BDA6942F08052DA61DB6903F0805301
:1026CC000193019B012512E0324B00221A60FFF7A7
:1026DC00CDFE05462D4B5B6A13F0020FDED0FFF7E3
:1026EC00C5FE401B0228F5D90320EAE000252A4B41
:1026FC001B6813F4807F11D0E368012B22D0002BD0
:10270C0038D103F1804303F504331A6A22F0010235
:10271C001A621A6A22F004021A6218E01E4A13683E
:10272C0043F480731360FFF7A1FE06461A4B1B6837
:10273C0013F4807FE0D1FFF799FE801B6428F5D954
:10274C000320BEE0114A136A43F001031362E368ED
:10275C0073B3FFF78BFE06460C4B1B6A13F0020F8C
:10276C0037D1FFF783FE801B41F288339842F3D9AF
:10277C000320A6E0052B11D0044B1A6A22F00102AB
:10278C001A621A6A22F004021A62E0E70010024090
:10279C000000424280044242007000404D4B1A6AD5
:1027AC0042F004021A621A6A42F001021A62CEE77F
:1027BC00FFF75CFE0646474B1B6A13F0020F08D06E
:1027CC00FFF754FE801B41F288339842F3D9032063
:1027DC0077E0E5B9E369002B72D03E4A526802F00B
:1027EC000C02082A56D0022B17D03B4B00221A6041
:1027FC00FFF73CFE0446374B1B6813F0007F47D0B5
:10280C00FFF734FE001B0228F5D9032059E0314AAA
:10281C00D36923F08053D361DCE72F4B00221A607D
:10282C00FFF724FE05462B4B1B6813F0007F06D0E8
:10283C00FFF71CFE401B0228F5D9032041E0236A58
:10284C00B3F5803F1AD023494B6823F47413226AE2
:10285C00606A024313434B601F4B01221A60FFF75F
:10286C0005FE04461B4B1B6813F0007F0ED1FFF7CF
:10287C00FDFD001B0228F5D9032022E0154A536800
:10288C0023F40033A1680B435360DCE7002018E00D
:10289C00002016E0012B16D00E4B5B6803F4803140
:1028AC00226A914211D103F47013626A93420ED1E1
:1028BC00002006E001207047012002E0012000E02A
:1028CC00002002B070BD0120FBE70120F9E70120D8
:1028DC00F7E700BF001002406000424286B0164B82
:1028EC000FCB0DF1180C0CE90F0040F20123ADF8E1
:1028FC000430124B5B6803F00C02082A02D010481B
:10290C0006B07047C3F38342624412F8102C13F4E0
:10291C00803F0CD0094B5B68C3F34043634413F80E
:10292C00143C074800FB02F0B0FBF3F0E8E7054865
:10293C0000FB02F0E4E700BFB845000800100240BD
:10294C0000127A0000093D00002800F0A08070B54C
:10295C000D460446524B1B6803F007038B420BD207
:10296C004F4A136823F007030B431360136803F0FB
:10297C0007038B4240F08D80236813F0020F17D0B1
:10298C0013F0040F04D0474A536843F4E0635360D8
:10299C00236813F0080F04D0424A536843F4605381
:1029AC005360404A536823F0F003A1680B43536013
:1029BC00236813F0010F31D06368012B20D0022B58
:1029CC0025D0384A126812F0020F64D035494A6893
:1029DC0022F0030213434B60FFF748FD0646314BD0
:1029EC005B6803F00C036268B3EB820F16D0FFF741
:1029FC003DFD801B41F288339842F0D9032045E01D
:102A0C00284A126812F4003FE0D101203EE0254A2A
:102A1C00126812F0007FD9D1012037E0204B1B68DF
:102A2C0003F00703AB420AD91D4A136823F00703CE
:102A3C002B431360136803F00703AB422DD12368BB
:102A4C0013F0040F06D0174A536823F4E063E168CF
:102A5C000B435360236813F0080F07D0114A5368D7
:102A6C0023F46053216943EAC1035360FFF736FF37
:102A7C000C4B5B68C3F303130B4AD35CD8400B4B72
:102A8C0018600B4B1868FFF7ADFC002070BD0120DF
:102A9C0070470120FAE70120F8E70120F6E700BFB4
:102AAC000020024000100240CC45000854000020D9
:102ABC0050000020014B1868704700BF54000020E4
:102ACC0008B5FFF7F7FF044B5B68C3F3C223034A57
:102ADC00D35CD84008BD00BF00100240DC450008A4
:102AEC0070B582B00446036813F0010F34D03E4B2E
:102AFC00DB6913F0805F47D13B4BDA6942F08052BF
:102B0C00DA61DB6903F080530193019B0125374B9C
:102B1C001B6813F4807F39D0334B1B6A13F440735A
:102B2C0011D0626802F440729A420CD02E4A136A99
:102B3C0023F440702E4901260E6000260E601062B0
:102B4C0013F0010F36D1284A136A23F440736168DD
:102B5C000B431362002D3ED1236813F0020F06D0F5
:102B6C00214A536823F44043A1680B435360236804
:102B7C0013F0100F34D01C4A536823F48003E1681F
:102B8C000B43536000202CE00025C0E7174A136864
:102B9C0043F480731360FFF769FC0646134B1B6804
:102BAC0013F4807FB8D1FFF761FC801B6428F5D942
:102BBC00032016E0FFF75AFC06460B4B1B6A13F07A
:102BCC00020FC0D1FFF752FC801B41F288339842B0
:102BDC00F3D9032005E0D36923F08053D361BBE71D
:102BEC00002002B070BD00BF001002400070004019
:102BFC004004424210B586B00446364B0FCB0DF163
:102C0C00180C0CE90F0040F20123ADF80430022C33
:102C1C0052D0102C04D0012C2CD0002006B010BDAA
:102C2C002D4B5A68186810F08070F7D0C2F38343AC
:102C3C0006A90B4413F8100C12F4803F16D0264B47
:102C4C005B68C3F340430B4413F8142C234BB3FBC6
:102C5C00F2F300FB03F0204B5B6813F4800FDDD123
:102C6C0040001F4BA3FB00304008D7E71D4B03FB74
:102C7C0000F0F0E7184B1B6A40F202321A40B2F532
:102C8C00817F24D003F44073B3F5007F04D0B3F5F7
:102C9C00407F09D00020C1E70F4A526A12F0020FA0
:102CAC00F5D049F64040B9E70B4B186810F40030EA
:102CBC00B4D04FF22440B1E7FFF702FF064B5B683C
:102CCC00C3F3813301335B00B0FBF3F0A6E74FF4A1
:102CDC000040A3E7B84500080010024000127A003B
:102CEC00ABAAAAAA00093D00F0B482B000252C467C
:102CFC00A3E07F4FBB4210D007D97E4FBB420CD014
:102D0C0007F58037BB4208D013E0A7F58017BB420C
:102D1C0003D007F57027BB4207D18B68002B58D026
:102D2C00012B51D04261082503E0A7F58017BB4267
:102D3C00F3D0FF2E4FD88446FF2E4FD8A200DCF8DC
:102D4C0000300F27974023EA070305FA02F21343DA
:102D5C00CCF800304B6813F0805F6DD0664B9A69ED
:102D6C0042F001029A619B6903F001030193019BFC
:102D7C00A208971C614B53F8273004F00307BF00DF
:102D8C004FF00F0C0CFA07FC23EA0C0C5C4B98422E
:102D9C002AD003F58063984200F08A8003F58063A3
:102DAC00984200F0878003F5806398421AD0042380
:102DBC001BE0CD68BDE7CD680435BAE7CD680835B2
:102DCC00B7E7CD680C35B4E702610825B1E70025FB
:102DDC00AFE70425ADE700F1040CADE7A4F1080260
:102DEC009200ACE7032300E00023BB4043EA0C0352
:102DFC000232424F47F822304B6813F4803F5BD0CD
:102E0C00404A1368334313604B6813F4003F59D0A6
:102E1C003C4A5368334353604B6813F4801F57D0BC
:102E2C00384A9368334393604B6813F4001F55D0B2
:102E3C00344AD3681E43D66001340B6833FA04F26B
:102E4C0052D00122A24003EA020632EA0303F3D174
:102E5C004B68122B3FF64DAF122B3FF66AAF01A712
:102E6C0057F823F0272D0008BF2D0008C92D0008A6
:102E7C00DB2D00083F2D00083F2D00083F2D0008DA
:102E8C003F2D00083F2D00083F2D00083F2D000866
:102E9C003F2D00083F2D00083F2D00083F2D000856
:102EAC003F2D00083F2D0008C32D0008CF2D000832
:102EBC0001239AE7022398E7124A136823EA0603D0
:102ECC001360A1E70F4A536823EA06035360A3E794
:102EDC000C4A936823EA06039360A5E7094AD36872
:102EEC0023EA0606D660A7E702B0F0BC704700BF25
:102EFC0000002210000031100010024000000140C0
:102F0C0000080140000401408368194201D00120EF
:102F1C007047002070470AB10161704709040161D4
:102F2C0070470000074AD36823F4E0631B041B0CB2
:102F3C00000200F4E060034343F0BF6343F400334A
:102F4C00D360704700ED00E030B4174BDB68C3F37F
:102F5C000223C3F10704042C28BF04241D1D062DD5
:102F6C0018D9033B4FF0FF3505FA04F421EA0401AC
:102F7C00994005FA03F322EA0303194300280BDBFB
:102F8C000901C9B200F1604000F5614080F80013FE
:102F9C0030BC70470023E5E700F00F000901C9B20F
:102FAC00024B1954F4E700BF00ED00E014ED00E013
:102FBC00002807DB00F01F02400901239340024A5E
:102FCC0042F82030704700BF00E100E00138B0F15A
:102FDC00807F0AD2064B5860064AF02182F82310F3
:102FEC000020986007221A6070470120704700BFCC
:102FFC0010E000E000ED00E0014B01221A60704788
:10300C0020000E4238B50446FFF730FA0546236817
:10301C005A6812F0200F07D1FFF728FA401BB0F5C1
:10302C007A7FF4D9032004E05A6842F010025A6007
:10303C00002038BD38B504460268536823F01003ED
:10304C005360FFF713FA054623685B6813F0200FF3
:10305C0007D1FFF70BFA401BB0F57A7FF4D90320A8
:10306C0000E0002038BDC0B138B505460268536891
:10307C0023F008035360FFF7F9F904462B685B68EB
:10308C0013F0080F07D1FFF7F1F9001BB0F57A7FA9
:10309C00F4D9032000E0002038BD01207047000067
:1030AC00002857D010B50446437C4BB102236374FF
:1030BC002046FFF7D8FF38B104236374012010BDFC
:1030CC000374FDF78BF9F1E72046FFF79BFF60BB1C
:1030DC002268536823F007035360A36823B11E4A88
:1030EC00136B23F0010313631B4AD36A23F460733D
:1030FC00A1680B43D3626268B2F1FF3F19D021681B
:10310C008B6823F00F0343EA12438B602168CB6872
:10311C001B0C1B0492B21343CB602046FFF78AFFB3
:10312C0088B1042363740120C9E70423637401206C
:10313C00C5E70120FFF75EFD08B1421EDFE704235F
:10314C0063740120BBE70023E37301236373A37350
:10315C006374B4E701207047006C0040704798B16D
:10316C0008B50346D0F8B40210B10020C3F8B4027D
:10317C0009B1C3F8B012012183F89C121A701846D9
:10318C00FDF774FA002008BD0220704719B1C0F891
:10319C00B412002070470220704708B5FDF79AFA68
:1031AC00002008BD08B5D0F8B4322BB11B68984785
:1031BC0000B908BD0220FCE70220FAE708B5D0F8F8
:1031CC00B4325B689847002008BD38B5044600F55A
:1031DC002A75284600F034F90123C4F89432B4F867
:1031EC00AE32C4F8983294F8A81201F01F03012BE8
:1031FC000ED0022B11D02BB101F080012046FDF72F
:10320C0084FA03E02946204600F0C8FA002038BDB5
:10321C002946204600F0F6FAF8E72946204600F049
:10322C0021FBF3E738B504460D4691BB1346D0F8A5
:10323C009422032A03D0052A24D0084633E0D0F880
:10324C006011D0F8642191420DD9891AC0F860112F
:10325C008A4206D98AB21946204600F025FC284637
:10326C0021E092B2F7E7D0F8B4321B691BB190F8A9
:10327C009C22032A04D0204600F01EFC284612E0B3
:10328C009847F8E70021C0F89412FDF73EFA28465B
:10329C0009E0D0F8B4329B6933B190F89C22032A30
:1032AC0004D19847002038BD0220FCE70220FAE741
:1032BC0038B504460D46002953D11346D0F8942254
:1032CC00022A0CD0042A00D01AB980212046FDF71E
:1032DC001CFA94F8A032012B3ED0284638BD016A66
:1032EC00426A91421BD8C169B1FBF2F302FB131382
:1032FC002BB98A4203D8D0F8983299421CD3D4F80F
:10330C00B432DB681BB194F89C22032A21D08021B3
:10331C002046FDF7FAF9204600F0D9FBD9E78A1AC6
:10332C00026292B2194600F0B7FB00231A46194606
:10333C002046FDF721FACCE70022114600F0ACFB49
:10334C000021C4F898120B460A462046FDF714FAE1
:10335C00BFE720469847DAE7002384F8A0322846D6
:10336C00BCE7D0F8B4325B6933B190F89C22032AE5
:10337C0004D198470020B1E70220AFE70220ADE767
:10338C0070B50446402300221146FDF7ABF9012528
:10339C00C4F858514026C4F8646133460022802199
:1033AC002046FDF79FF9A561666284F89C520023C4
:1033BC00C4F894326360C4F8A432D4F8B8322BB198
:1033CC00D4F8B4325B68002120469847002070BDC9
:1033DC0001740020704790F89C3280F89D320423D1
:1033EC0080F89C320020704790F89C32042B01D05E
:1033FC000020704790F89D3280F89C32F8E708B5B1
:10340C0090F89C32032B01D0002008BDD0F8B432C8
:10341C00DB69002BF8D09847F6E7034600201A78B2
:10342C001AB10130C0B20133F9E7704708B54B88C7
:10343C00012B00D008BDC0F8A43200F03DFBF9E729
:10344C000B7803704B7843708B78CA7803EB0223AC
:10345C0043800B794A7903EB022383808B79CA79F9
:10346C0003EB0223C380704710B504468021FDF79F
:10347C004CF900212046FDF748F910BD30B583B05A
:10348C0005460C460023ADF806304A88130A013B6A
:10349C00062B00F2A480DFE803F004182CA2A2860D
:1034AC009300D0F8B0321B680DF10601007C9847F0
:1034BC00BDF806201AB1E388002B40F09480E38815
:1034CC00002B00F09A8003B030BD037C43B9D0F8D8
:1034DC00B4329B6A0DF10600984702234370E7E76C
:1034EC00D0F8B432DB6A0DF1060098470223437022
:1034FC00DEE7D2B2052A52D8DFE802F003101D2A0B
:10350C003744D0F8B0325B6823B10DF10601007C72
:10351C009847CDE72146FFF7A7FFD4E7D0F8B032A4
:10352C009B6823B10DF10601007C9847C0E721464A
:10353C00FFF79AFFC7E7D0F8B032DB6823B10DF183
:10354C000601007C9847B3E72146FFF78DFFBAE7E9
:10355C00D0F8B0321B6923B10DF10601007C9847FD
:10356C00A6E72146FFF780FFADE7D0F8B0325B69E4
:10357C0023B10DF10601007C984799E72146FFF72E
:10358C0073FFA0E7D0F8B0329B6923B10DF10601AF
:10359C00007C98478CE72146FFF766FF93E72146AE
:1035AC00FFF762FF8FE7037C33B9D0F8B4325B6B63
:1035BC000DF1060098477BE72146FFF755FF82E7A0
:1035CC00037C43B9D0F8B4321B6B0DF1060098475D
:1035DC00072343706CE72146FFF746FF73E721464C
:1035EC00FFF742FF6FE79A4228BF1A46ADF8062054
:1035FC000146284600F043FA61E7284600F05CFAE1
:10360C0061E738B504468B88F3B9CB88E3B94B88AE
:10361C007F2B19D803F07F0590F89C32032B0CD02C
:10362C0080F89E522946FDF797F8204600F044FAA0
:10363C0035B1022384F89C3209E0FFF715FF06E050
:10364C00012384F89C3202E02046FFF70DFF38BDC1
:10365C0038B504460D468978284B197001290ED8C7
:10366C0090F89C32022B0ED0032B21D02946FFF769
:10367C00FBFE224B19782046FFF7A0FD02E02946FD
:10368C00FFF7F2FE38BD81B14160032380F89C3214
:10369C00FFF788FD022803D0204600F00DFAF1E771
:1036AC0029462046FFF7E0FEECE700F005FAE9E7D3
:1036BC0089B1436899421DD0D9B2FFF77FFD0F4BFA
:1036CC00197861602046FFF76DFD02280DD0204669
:1036DC0000F0F2F9D6E7022380F89C324160FFF744
:1036EC006DFD204600F0E8F9CCE729462046FFF7AF
:1036FC00BBFEC7E700F0E0F9C4E700BF940100206F
:10370C0008B5CB88012B0AD190F89C32022B09D931
:10371C00032B09D10122011D00F0B1F901E0FFF7E3
:10372C00A3FE08BD5BB213B9FFF79EFEF9E7014695
:10373C00002341F8083F012200F0A1F9F1E708B598
:10374C0090F89C32013B022B12D8CB88022B0CD167
:10375C000123C360D0F8A4320BB10323C36002224F
:10376C0000F10C0100F08BF908BDFFF77DFEFBE7C3
:10377C00FFF77AFEF8E708B590F89C32013B022B74
:10378C0009D84B88012B00D008BD0023C0F8A43207
:10379C0000F092F9F8E7FFF767FEF5E708B50B784C
:1037AC0003F06003202B05D0402B03D043B1FFF76F
:1037BC005BFE03E0D0F8B4329B689847002008BD4C
:1037CC004B78092B1BD8DFE803F011171A141A08D1
:1037DC00051A0E0BFFF752FEF0E7FFF712FFEDE7AD
:1037EC00FFF736FFEAE7FFF78BFFE7E7FFF7A7FFE7
:1037FC00E4E7FFF71BFEE1E7FFF7BDFFDEE7FFF7AE
:10380C0033FEDBE738B505460C460B7803F0600356
:10381C00202B06D0402B04D01BB1FFF725FE002037
:10382C0038BD95F89C32013B022B16D82379012B1D
:10383C000ED8D5F8B4329B68214628469847E388C1
:10384C00002BECD10028EAD1284600F035F9E6E748
:10385C0021462846FFF708FEE1E721462846FFF7F8
:10386C0003FEDCE770B505468B880C7804F0600429
:10387C00202C07D0DAB2402C04D05CB1FFF7F4FD59
:10388C00002405E0D5F8B4329B68284698470024FC
:10389C00204670BD202C09D04E78012E33D0032E3B
:1038AC000AD0002E55D0FFF7DFFDF1E7D0F8B43287
:1038BC009B6898470446EBE790F89C32022B04D0A7
:1038CC00032B11D0FFF7D0FDE2E70AB1802A03D118
:1038DC002846FFF7C9FDDBE71146FCF716FF8021F0
:1038EC002846FCF712FFD3E74B8823B91AB1802A7C
:1038FC0001D0CB881BB1284600F0DEF8C8E7114692
:10390C00FCF703FFF7E790F89C32022B04D0032B53
:10391C0011D0FFF7A9FDBBE70AB1802A03D12846D5
:10392C00FFF7A2FDB4E71146FCF7EFFE8021284615
:10393C00FCF7EBFEACE74B88002BA9D112F07F0F04
:10394C0003D1284600F0B8F8A2E71146FCF7E5FED3
:10395C00F7E790F89C02022806D0032829D02846C5
:10396C00FFF782FD344693E70AB1802A13D113F096
:10397C00800F15D102F07F0202EB8202910001F55B
:10398C00A8712944043100230B600222284600F060
:10399C0076F834467CE72846FFF766FD344677E731
:1039AC0002F07F0202EB82029100103129440431B3
:1039BC00E9E75BB2002B1FDB02F00F0000EB80008D
:1039CC0005EB8000D0F8580120B3002B27DB02F068
:1039DC007F0303EB83039C0004F5A8742C4404348C
:1039EC000AB1802A24D100232360022221462846D2
:1039FC0000F045F834464BE702F00F0000EB800076
:103A0C0005EB800080690028DFD12846FFF72CFDEC
:103A1C0034463DE72846FFF727FD344638E702F0E9
:103A2C007F0303EB83039C0010342C440434D7E74E
:103A3C0011462846FCF779FE10B101232360D4E728
:103A4C0000232360D1E7C8B170B50D461646044675
:103A5C00FFF7E3FC013040003080287003236B70CB
:103A6C00022307E001345A1CD2B2E8540233DBB211
:103A7C000021A95420780028F4D170BD704710B5EE
:103A8C0013460222C0F89422C36103620A46002145
:103A9C00FCF76AFE002010BD08B513460A4600214B
:103AAC00FCF762FE002008BD08B513460A4600214B
:103ABC00FCF762FE002008BD08B50423C0F8943260
:103ACC0000231A461946FCF74FFE002008BD08B526
:103ADC000523C0F8943200231A461946FCF74CFE15
:103AEC00002008BD2223038000487047D00000202E
:103AFC002223038000487047F40000202223038017
:103B0C000048704730010020D0F8B83200201873FC
:103B1C00704700000A2303800048704724010020EE
:103B2C0070B582B0D0F8B8520023ADF806300C78DE
:103B3C0014F0600425D0202C72D14B78023B092B59
:103B4C001BD8DFE803F014091A1A1A1A1A1A0F05EF
:103B5C008B782B60002466E001222946FFF78FFF4B
:103B6C00002460E04B881B0A6B6000245BE00122A0
:103B7C00291DFFF784FF002455E0FFF775FC022494
:103B8C0051E04E780B2E47D8DFE806F00646464645
:103B9C004646154646462D3B90F89C32032B03D0E7
:103BAC00FFF762FC02243EE002220DF10601FFF752
:103BBC0066FF344637E04B881B0A222B09D0212B99
:103BCC000DD1CA88092A28BF09221849FFF757FFC7
:103BDC0029E0CA883F2A28BF3F221549F6E7FFF79C
:103BEC0043FC02241FE090F89C32032B03D0FFF718
:103BFC003BFC022417E0012205F10801FFF73FFF0F
:103C0C0011E090F89C32032B02D18B78AB600AE068
:103C1C00FFF72AFC022406E0FFF726FC022402E050
:103C2C00FFF722FC0224204602B070BD18010020D0
:103C3C005800002010B504468121FCF75EFD0023DE
:103C4C00E362D4F8B80220B1FCF7A2FD0023C4F85B
:103C5C00B832002010BD10B5044604230322812184
:103C6C00FCF740FD0123E3621020FCF78DFDC4F846
:103C7C00B80218B100230373184610BD0220FCE7EC
:103C8C0010B5D0F8B84290F89C32032B01D000202C
:103C9C0010BD237B002BFAD10123237313460A4654
:103CAC008121FCF761FDF2E72DE9F04FB34B036086
:103CBC004FF40054848083604FF480418181036110
:103CCC004FF400478782AE4A82614FF0010BA0F897
:103CDC001CB002624FF0020AA0F824A082624FF0DE
:103CEC00040CA0F82CC0A3F5806303634FF480553B
:103CFC008586836384870364A0F844108364A0F8EA
:103D0C004C7002654FF48078A0F8548082654FF4B3
:103D1C00007EA0F85CE002660825A0F8645082667C
:103D2C001021A0F86C1002672026A0F8746082673E
:103D3C004024A0F87C40C0F880204FF08009A0F807
:103D4C008490C0F88830A0F88CB0C0F89030A0F8FF
:103D5C0094A0C0F898304FF4806AA0F89CA0C0F8EA
:103D6C00A020A0F8A4A0C0F8A820A0F8AC70C0F8BF
:103D7C00B030A0F8B450C0F8B830A0F8BC10C0F8FF
:103D8C00C030A0F8C460C0F8C830A0F8CC40C0F86F
:103D9C00D030A0F8D490C0F8D830A0F8DC80C0F8AF
:103DAC00E030A0F8E4E03A2380F8BC313B2380F803
:103DBC00C4313C2380F8CC313D2380F8D4313E23F0
:103DCC0080F8EC31352380F83C321E2380F84432E5
:103DDC001F2380F84C3280F85462212380F85C3227
:103DEC00222380F86432232380F86C32142380F869
:103DFC00D4321A2380F8DC3280F8E452152380F890
:103E0C00EC32172380F8F43280F85CC3162380F868
:103E1C006433072380F86C33092380F874330A2346
:103E2C0080F87C334A2380F88433292380F8DC33F0
:103E3C001D2380F8E4331B2380F8EC33062380F831
:103E4C00F433192380F8FC33052380F804344D2314
:103E5C0080F80C34E12380F86434E32380F86C346C
:103E6C00E22380F87C34E02380F884342C2380F81F
:103E7C008C343F2380F82435422380F83435432397
:103E8C0080F83C35442380F84435452380F84C3584
:103E9C00412380F8643580F8AC45252380F8B4358F
:103EAC00262380F8BC35272380F8C4352D2380F8D1
:103EBC00CC352E2380F8D435242380F8EC354B23D5
:103ECC0080F83436182380F83C360C2380F84436BE
:103EDC00122380F84C36132380F854362F2380F8A5
:103EEC005C36302380F86436312380F86C361C2322
:103EFC0080F874364E2380F8BC360D2380F8C43617
:103F0C000E2380F8CC360F2380F8D436332380F878
:103F1C00DC36342380F8E436282380F8EC360B2387
:103F2C0080F8FC362A2380F8443780F84C17362367
:103F3C0080F85437372380F85C37382380F864379F
:103F4C00522380F87437112380F884374C2380F87F
:103F5C00CC37E42380F8D437E52380F8EC375023B2
:103F6C0080F8F437512380F8FC374F2380F804385D
:103F7C002B2380F80C38BDE8F08F00BF00100140F7
:103F8C000008014070B505460E46002409E005EB1B
:103F9C00C4030122998855F83400FEF7BCFF0134A4
:103FAC00E4B20B2C0BD8731E9C42F0D105EBC4036E
:103FBC000022998855F83400FEF7ADFFEFE770BD8D
:103FCC00F8B506460F46002511E07C1E05F10C03E2
:103FDC0006EBC302918856F83300FEF795FF04EB0D
:103FEC00041333442B4483F8E8000135EDB2102D53
:103FFC00EBD9F8BD10B4002430E004EB04120A44F1
:10400C00363200EBC202927A022A07D804EB041370
:10401C000B44363300EBC30301329A720131102981
:10402C001AD804EB041202440A4492F8E820002A3D
:10403C00E3D104EB04120A44363200EBC2021289BB
:10404C00B2F5967FEAD804EB04130B44363300EB3D
:10405C00C30301321A81E1E70134E4B20B2C01D81D
:10406C000021DCE710BC7047F0B4002301E0013301
:10407C00DBB2052B25D81946B64AD25C012AF6D1FB
:10408C00B54C14F8132004EB4304647802EB0212D1
:10409C002244363200EBC2029279002AE7D1FF2487
:1040AC00AC4AD454AC4A02F8134002EB43025470AD
:1040BC000144002281F81F2881F8252881F82B283B
:1040CC00D5E790F87E34002B40D090F8142842F0BD
:1040DC00100280F8142880F8183890F88634F3B35E
:1040EC0090F8142842F0010280F8142880F8163851
:1040FC0090F86E34E3B390F8142842F0400280F844
:10410C00142880F8193890F86634D3B390F8142832
:10411C0042F0040280F8142880F8173890F8E6373B
:10412C00C3B390F8152842F0010280F8152880F8E6
:10413C001A3890F8FE37B3B390F8152842F0040201
:10414C0080F8152880F81B380023A2E090F814287A
:10415C0002F0EF026FF3451280F81428BBE790F8D9
:10416C00142802F0FE026FF3410280F81428BDE718
:10417C0090F8142802F0BF026FF3C71280F81428CD
:10418C00BFE790F8142802F0FB026FF3C30280F82B
:10419C001428C1E790F8152802F0FE026FF34102D3
:1041AC0080F81528C3E790F8152802F0FB026FF38E
:1041BC00C30280F81528C5E7012931D12BE00E295F
:1041CC0030D128E005292FD125E002292ED122E07B
:1041DC0004292DD11FE00B292CD11CE00132D2B2C5
:1041EC00052A17D817465C4D15F812509D42F5D18B
:1041FC00594D05EB42056D788D42EFD106EB061457
:10420C000C44363400EBC404A479074487F82548E1
:10421C000124E3E7ECB10131102938D8052BCBD0C0
:10422C000B2BCCD0052BCDD0052BCED0052BCFD046
:10423C000B2BD0D01E4603EB03120A44363200EB94
:10424C00C2029279002AE6D000242246C8E7013443
:10425C00E4B2052CDFD83F4A125DFF2AF7D13D4A64
:10426C00012515553C4A02F8143002EB44025170FA
:10427C0006EB06120A44363200EBC20215790444EE
:10428C0084F81F58927984F825280624DFE7013337
:10429C00DBB20B2B01D80021BEE7002453E0022A2D
:1042AC0033D904EB04120A44363200EBC202927981
:1042BC00012A2AD004EB04120A44363200EBC20263
:1042CC0000259572012595711FE00131102938D810
:1042DC00234604EB04120A44363200EBC202128964
:1042EC001D2ADCD904EB04120A44363200EBC2025C
:1042FC009279022A09D004EB04120A44363200EBFC
:10430C00C202002595720225957103EB03120A4433
:10431C00363200EBC202927A012AD6D903EB031291
:10432C000A44363200EBC2029279002ACDD003EB5C
:10433C0003130B44363300EBC30300221A819A712A
:10434C00C3E70134E4B20B2C01D80021BEE7F0BC6A
:10435C00704700BF540100209801002070B505463D
:10436C000C46002303E00022EA540133DBB2072B96
:10437C00F9D92046FFF778FE94F8143813F0010FA2
:10438C0009D02B7843F001032B7094F8143843F0C8
:10439C00020384F8143894F8143813F0040F09D07D
:1043AC002B7843F002032B7094F8143843F0080375
:1043BC0084F8143894F8143813F0100F09D02B78B3
:1043CC0043F004032B7094F8143843F0200384F862
:1043DC00143894F8143813F0400F09D02B7843F0AC
:1043EC0008032B7094F8143843F0200384F8143825
:1043FC0094F8153813F0010F09D02B7843F0100303
:10440C002B7094F8143843F0200384F8143894F883
:10441C00153813F0040F09D02B7843F020032B70C0
:10442C0094F8143843F0200384F8143894F81538B1
:10443C0013F0100F09D02B7843F040032B7094F835
:10444C00143843F0200384F8143894F8153813F01A
:10445C00400F09D02B7863F07F032B7094F814383D
:10446C0043F0200384F8143800236B7006E0A11885
:10447C0091F82518022917D00133DBB2052B19D876
:10448C001A46E11891F82B180029F0D1E11891F88F
:10449C0025180129EBD1991CE01890F81F686E546F
:1044AC00012180F82B18E2E7991C224492F81F088E
:1044BC006854E1E770BD0000002103E00B4B5B5832
:1044CC00435004310A480B4B42189A42F6D30A4A1D
:1044DC0002E0002342F8043B084B9A42F9D3FEF762
:1044EC003DFE00F00FF8FBF707FF7047EC450008A6
:1044FC00000000205C0100205C010020A4110020C1
:10450C00FEE7000070B500260C4D0D4C641BA4108A
:10451C00A64209D100F01AF800260A4D0A4C641B79
:10452C00A410A64205D170BD55F8043B984701363E
:10453C00EEE755F8043B98470136F2E7E4450008EE
:10454C00E4450008E4450008E8450008F8B500BF5C
:10455C00F8BC08BC9E467047F8B500BFF8BC08BC58
:04456C009E467047B0
:1045700053544D33322048756D616E20696E7465F9
:10458000726661636500000053544D6963726F6524
:104590006C656374726F6E696373000048494420F0
:1045A000436F6E666967000048494420496E746530
:1045B00072666163650000000203040506070809CE
:1045C0000A0B0C0D0E0F1010000000000000000080
:1045D00000000000010203040607080900000000B3
:0445E00001020304CD
:0445E4003101000899
:0445E8000D010008B9
:1045EC006904000875040008250500080105000889
:1045FC00ED040008410500086505000812010002E1
:10460C000000004083042C5700020102030100004B
:10461C00040309041A03000000000000000000005D
:10462C00000000000000000000000000000001007D
:10463C00100000000024F40005010906A101050783
:10464C0019E029E7150025017501950881029501EE
:10465C007508810395057501050819012905910255
:10466C0095017503910395067508150025FF05073F
:10467C00190029658100C000633C0008413C00081A
:10468C002D3B00080000000000000000153B000856
:10469C00000000000000000000000000000000000E
:1046AC00FD3A0008F13A0008093B0008213B0008DC
:1046BC0009022200010100E032090400000103019B
:1046CC000100092111010001223F000705810304AB
:1046DC00000A000009022200010100E03209040076
:1046EC00000103010100092111010001223F000713
:1046FC000581030400070000092111010001223F7C
:10470C00000000000A06000200000040010000004A
:10471C0009022200010100E032090400000103013A
:10472C000100092111010001223F0007058103044A
:0C473C00000A0000FFFFFFFFFFFF00006D
:04000005080044C5E6
:00000001FF
